:10000000850187010317831688018901031383166D
:100010008501870189100914811383012030840030
:100020000430F60064000608F000F3000808F10050
:10003000F2010430F6000608031925280808031900
:100040003428091C362009183F200F30F400F03006
:10005000F5007208850069200F30F400F030F500DB
:1000600073088700692012288914122889107108E2
:100070007302031C0800F300F20A362808008910F6
:10008000F830F4000730F5007308F4057308F5053F
:100090000311F40CF40CF40C7108F402F20D721C50
:1000A00058280310F40DF40DF40D74087504F300D2
:1000B00072185D280310F30D5F280314F30DF60B7F
:1000C0003F280F30F400F030F5007508F305F30E0B
:1000D0000800F405F505F50E04308A0075080024C3
:1000E0008000840A04308A00740800248000840A96
:0E00F0000408243A031D080020308400080094
:100800000F398207303431343234333434343534B0
:100810003634373438343934413442344334443450
:0408200045344634E1
:060FFA000A128A11002812
:00000001FF
