:100F24000A128A11952F0313831285018601870102
:100F34008801890103138316850187018113FF301A
:100F4400860088000130890020308400031783164E
:100F540088018901031383126400F101F001F20195
:100F6400F30106080319BF2F08080319BF2FC5276B
:100F74000918D927091CD2270000710885007008B8
:100F84008700EA27AE2F06020318CD2F0808F200C7
:100F94000608F40008000808F4000608F200080037
:100FA4007208F1070318F00AF40BD22F0800741C1E
:100FB400E12F7208F1070318F00A7308F007031011
:100FC400F20DF30D0310F40CF408031DD92F0800DF
:100FD400841383130608800084170808800083178D
:100FE400710880008413700880008413840A6F30B1
:0C0FF4000406031D0800203084000800E3
:04400E00FC3FFF3F35
:00000001FF
