:100F2E000A128A119A2F03138312850186018701F3
:100F3E008801890103138316850187018113FF3010
:100F4E008600880001308900031783168801890105
:100F5E0003138312203084006400F101F001F201CA
:100F6E00F30106080319E42F08080319E42F0602FB
:100F7E000318C62F0808F2000608F400CA2F080846
:100F8E00F4000608F2000918D32F7208F1070318AF
:100F9E00F00AF40BCC2FE42F741CDB2F7208F10730
:100FAE000318F00A7308F0070310F20DF30D031087
:100FBE00F40CF4080319E42FD32F71088500700880
:100FCE008700EA27B32F8413831306088000841743
:100FDE000808800083177108800084137008800051
:100FEE008413840A6F300406031D08002030840029
:020FFE000800E9
:04400E00FC3FFF3F35
:00000001FF
