:060000000A128A1100291A
:10000800F000030EF10083010B190D288C18142839
:1000180026280B1138308100F20B26288610262856
:100028008C10061A1F28861204308A00720E0024CB
:10003800870006162628061204308A007208002453
:0E00480087008616710E8300F00E700E090000
:100200008501860187011F3092008C100B110313AA
:10021000831687018601A83081008C149C309230AF
:100220000317831688018901E0308B008301F201F6
:100230006400F2080319182938308100861464001C
:08024000F208031918291F2917
:100800000F3982073F3430346D34793472345B34BD
:100810005F3431347F347B3477347F340F343F346A
:040820004F344734D6
:04400E00F420FF3F5C
:00000001FF
